{
  "contractName": "CrowdsaleByUSDT",
  "abi": [
    {
      "inputs": [
        {
          "internalType": "contract IERC20",
          "name": "_usdtToken",
          "type": "address"
        },
        {
          "internalType": "uint256",
          "name": "_rate",
          "type": "uint256"
        },
        {
          "internalType": "address payable",
          "name": "_wallet",
          "type": "address"
        },
        {
          "internalType": "contract IERC20",
          "name": "_token",
          "type": "address"
        },
        {
          "internalType": "address",
          "name": "_tokenWallet",
          "type": "address"
        }
      ],
      "payable": false,
      "stateMutability": "nonpayable",
      "type": "constructor"
    },
    {
      "anonymous": false,
      "inputs": [
        {
          "indexed": true,
          "internalType": "address",
          "name": "purchaser",
          "type": "address"
        },
        {
          "indexed": true,
          "internalType": "address",
          "name": "beneficiary",
          "type": "address"
        },
        {
          "indexed": false,
          "internalType": "uint256",
          "name": "value",
          "type": "uint256"
        },
        {
          "indexed": false,
          "internalType": "uint256",
          "name": "amount",
          "type": "uint256"
        }
      ],
      "name": "TokensPurchased",
      "type": "event"
    },
    {
      "payable": true,
      "stateMutability": "payable",
      "type": "fallback"
    },
    {
      "constant": true,
      "inputs": [
        {
          "internalType": "address",
          "name": "",
          "type": "address"
        }
      ],
      "name": "joined",
      "outputs": [
        {
          "internalType": "uint256",
          "name": "",
          "type": "uint256"
        }
      ],
      "payable": false,
      "stateMutability": "view",
      "type": "function"
    },
    {
      "constant": true,
      "inputs": [],
      "name": "maxCrowdsaleAmount",
      "outputs": [
        {
          "internalType": "uint256",
          "name": "",
          "type": "uint256"
        }
      ],
      "payable": false,
      "stateMutability": "view",
      "type": "function"
    },
    {
      "constant": true,
      "inputs": [],
      "name": "minCrowdsaleAmount",
      "outputs": [
        {
          "internalType": "uint256",
          "name": "",
          "type": "uint256"
        }
      ],
      "payable": false,
      "stateMutability": "view",
      "type": "function"
    },
    {
      "constant": true,
      "inputs": [],
      "name": "rate",
      "outputs": [
        {
          "internalType": "uint256",
          "name": "",
          "type": "uint256"
        }
      ],
      "payable": false,
      "stateMutability": "view",
      "type": "function"
    },
    {
      "constant": true,
      "inputs": [],
      "name": "soldNumber",
      "outputs": [
        {
          "internalType": "uint256",
          "name": "",
          "type": "uint256"
        }
      ],
      "payable": false,
      "stateMutability": "view",
      "type": "function"
    },
    {
      "constant": true,
      "inputs": [],
      "name": "token",
      "outputs": [
        {
          "internalType": "contract IERC20",
          "name": "",
          "type": "address"
        }
      ],
      "payable": false,
      "stateMutability": "view",
      "type": "function"
    },
    {
      "constant": true,
      "inputs": [],
      "name": "tokenWallet",
      "outputs": [
        {
          "internalType": "address",
          "name": "",
          "type": "address"
        }
      ],
      "payable": false,
      "stateMutability": "view",
      "type": "function"
    },
    {
      "constant": true,
      "inputs": [],
      "name": "totalNumber",
      "outputs": [
        {
          "internalType": "uint256",
          "name": "",
          "type": "uint256"
        }
      ],
      "payable": false,
      "stateMutability": "view",
      "type": "function"
    },
    {
      "constant": true,
      "inputs": [],
      "name": "usdtToken",
      "outputs": [
        {
          "internalType": "contract IERC20",
          "name": "",
          "type": "address"
        }
      ],
      "payable": false,
      "stateMutability": "view",
      "type": "function"
    },
    {
      "constant": true,
      "inputs": [],
      "name": "wallet",
      "outputs": [
        {
          "internalType": "address payable",
          "name": "",
          "type": "address"
        }
      ],
      "payable": false,
      "stateMutability": "view",
      "type": "function"
    },
    {
      "constant": true,
      "inputs": [],
      "name": "weiRaised",
      "outputs": [
        {
          "internalType": "uint256",
          "name": "",
          "type": "uint256"
        }
      ],
      "payable": false,
      "stateMutability": "view",
      "type": "function"
    },
    {
      "constant": false,
      "inputs": [
        {
          "internalType": "uint256",
          "name": "weiAmount",
          "type": "uint256"
        }
      ],
      "name": "buyTokens",
      "outputs": [],
      "payable": true,
      "stateMutability": "payable",
      "type": "function"
    },
    {
      "constant": true,
      "inputs": [],
      "name": "remainingTokens",
      "outputs": [
        {
          "internalType": "uint256",
          "name": "",
          "type": "uint256"
        }
      ],
      "payable": false,
      "stateMutability": "view",
      "type": "function"
    }
  ],
  "bytecode": "0x6080604052600060075560036008556001600955600f600a5534801561002457600080fd5b50604051611690380380611690833981810160405260a081101561004757600080fd5b81019080805190602001909291908051906020019092919080519060200190929190805190602001909291908051906020019092919050505060016000806101000a81548160ff021916908315150217905550600073ffffffffffffffffffffffffffffffffffffffff168573ffffffffffffffffffffffffffffffffffffffff161415610120576040517f08c379a000000000000000000000000000000000000000000000000000000000815260040180806020018281038252602d81526020018061163e602d913960400191505060405180910390fd5b60008411610196576040517f08c379a00000000000000000000000000000000000000000000000000000000081526004018080602001828103825260148152602001807f43726f776473616c653a2072617465206973203000000000000000000000000081525060200191505060405180910390fd5b600073ffffffffffffffffffffffffffffffffffffffff168373ffffffffffffffffffffffffffffffffffffffff16141561021c576040517f08c379a000000000000000000000000000000000000000000000000000000000815260040180806020018281038252602581526020018061166b6025913960400191505060405180910390fd5b600073ffffffffffffffffffffffffffffffffffffffff168273ffffffffffffffffffffffffffffffffffffffff1614156102a2576040517f08c379a000000000000000000000000000000000000000000000000000000000815260040180806020018281038252602481526020018061161a6024913960400191505060405180910390fd5b600073ffffffffffffffffffffffffffffffffffffffff168173ffffffffffffffffffffffffffffffffffffffff161415610328576040517f08c379a000000000000000000000000000000000000000000000000000000000815260040180806020018281038252602b8152602001806115ef602b913960400191505060405180910390fd5b84600060016101000a81548173ffffffffffffffffffffffffffffffffffffffff021916908373ffffffffffffffffffffffffffffffffffffffff1602179055508360018190555082600260006101000a81548173ffffffffffffffffffffffffffffffffffffffff021916908373ffffffffffffffffffffffffffffffffffffffff16021790555081600360006101000a81548173ffffffffffffffffffffffffffffffffffffffff021916908373ffffffffffffffffffffffffffffffffffffffff16021790555080600460006101000a81548173ffffffffffffffffffffffffffffffffffffffff021916908373ffffffffffffffffffffffffffffffffffffffff16021790555050505050506111a8806104476000396000f3fe6080604052600436106100c15760003560e01c80635d39a2381161007f578063bff99c6c11610059578063bff99c6c1461030a578063c0daddfd14610361578063f887d0191461038c578063fc0c546a146103f1576100c1565b80635d39a2381461025d578063a98ad46c14610288578063bf583903146102df576100c1565b8062df055c1461012c5780631753f3c5146101575780632c4e722e146101825780633610724e146101ad5780634042b66f146101db578063521eb27314610206575b600260009054906101000a900473ffffffffffffffffffffffffffffffffffffffff1673ffffffffffffffffffffffffffffffffffffffff166108fc349081150290604051600060405180830381858888f19350505050158015610129573d6000803e3d6000fd5b50005b34801561013857600080fd5b50610141610448565b6040518082815260200191505060405180910390f35b34801561016357600080fd5b5061016c61044e565b6040518082815260200191505060405180910390f35b34801561018e57600080fd5b50610197610454565b6040518082815260200191505060405180910390f35b6101d9600480360360208110156101c357600080fd5b810190808035906020019092919050505061045a565b005b3480156101e757600080fd5b506101f061059d565b6040518082815260200191505060405180910390f35b34801561021257600080fd5b5061021b6105a3565b604051808273ffffffffffffffffffffffffffffffffffffffff1673ffffffffffffffffffffffffffffffffffffffff16815260200191505060405180910390f35b34801561026957600080fd5b506102726105c9565b6040518082815260200191505060405180910390f35b34801561029457600080fd5b5061029d6105cf565b604051808273ffffffffffffffffffffffffffffffffffffffff1673ffffffffffffffffffffffffffffffffffffffff16815260200191505060405180910390f35b3480156102eb57600080fd5b506102f46105f5565b6040518082815260200191505060405180910390f35b34801561031657600080fd5b5061031f610830565b604051808273ffffffffffffffffffffffffffffffffffffffff1673ffffffffffffffffffffffffffffffffffffffff16815260200191505060405180910390f35b34801561036d57600080fd5b50610376610856565b6040518082815260200191505060405180910390f35b34801561039857600080fd5b506103db600480360360208110156103af57600080fd5b81019080803573ffffffffffffffffffffffffffffffffffffffff16906020019092919050505061085c565b6040518082815260200191505060405180910390f35b3480156103fd57600080fd5b50610406610874565b604051808273ffffffffffffffffffffffffffffffffffffffff1673ffffffffffffffffffffffffffffffffffffffff16815260200191505060405180910390f35b60095481565b600a5481565b60015481565b6000809054906101000a900460ff166104db576040517f08c379a000000000000000000000000000000000000000000000000000000000815260040180806020018281038252601f8152602001807f5265656e7472616e637947756172643a207265656e7472616e742063616c6c0081525060200191505060405180910390fd5b60008060006101000a81548160ff0219169083151502179055506104ff338261089a565b61050f33600c600a0a8302610a0e565b61058033600260009054906101000a900473ffffffffffffffffffffffffffffffffffffffff1683600060019054906101000a900473ffffffffffffffffffffffffffffffffffffffff1673ffffffffffffffffffffffffffffffffffffffff16610bd6909392919063ffffffff16565b60016000806101000a81548160ff02191690831515021790555050565b60055481565b600260009054906101000a900473ffffffffffffffffffffffffffffffffffffffff1681565b60075481565b600060019054906101000a900473ffffffffffffffffffffffffffffffffffffffff1681565b600061082b600360009054906101000a900473ffffffffffffffffffffffffffffffffffffffff1673ffffffffffffffffffffffffffffffffffffffff166370a08231600460009054906101000a900473ffffffffffffffffffffffffffffffffffffffff166040518263ffffffff1660e01b8152600401808273ffffffffffffffffffffffffffffffffffffffff1673ffffffffffffffffffffffffffffffffffffffff16815260200191505060206040518083038186803b1580156106bb57600080fd5b505afa1580156106cf573d6000803e3d6000fd5b505050506040513d60208110156106e557600080fd5b8101908080519060200190929190505050600360009054906101000a900473ffffffffffffffffffffffffffffffffffffffff1673ffffffffffffffffffffffffffffffffffffffff1663dd62ed3e600460009054906101000a900473ffffffffffffffffffffffffffffffffffffffff16306040518363ffffffff1660e01b8152600401808373ffffffffffffffffffffffffffffffffffffffff1673ffffffffffffffffffffffffffffffffffffffff1681526020018273ffffffffffffffffffffffffffffffffffffffff1673ffffffffffffffffffffffffffffffffffffffff1681526020019250505060206040518083038186803b1580156107eb57600080fd5b505afa1580156107ff573d6000803e3d6000fd5b505050506040513d602081101561081557600080fd5b8101908080519060200190929190505050610cdc565b905090565b600460009054906101000a900473ffffffffffffffffffffffffffffffffffffffff1681565b60085481565b60066020528060005260406000206000915090505481565b600360009054906101000a900473ffffffffffffffffffffffffffffffffffffffff1681565b6000600660008473ffffffffffffffffffffffffffffffffffffffff1673ffffffffffffffffffffffffffffffffffffffff1681526020019081526020016000205414610932576040517f08c379a000000000000000000000000000000000000000000000000000000000815260040180806020018281038252603781526020018061109a6037913960400191505060405180910390fd5b6008546007541061098e576040517f08c379a00000000000000000000000000000000000000000000000000000000081526004018080602001828103825260268152602001806111246026913960400191505060405180910390fd5b60006006600a0a828161099d57fe5b04905060095481101580156109b45750600a548111155b610a09576040517f08c379a00000000000000000000000000000000000000000000000000000000081526004018080602001828103825260328152602001806110d16032913960400191505060405180910390fd5b505050565b6000610a2560015483610cf590919063ffffffff16565b9050610a3c82600554610d7b90919063ffffffff16565b600581905550610ab3600460009054906101000a900473ffffffffffffffffffffffffffffffffffffffff168483600360009054906101000a900473ffffffffffffffffffffffffffffffffffffffff1673ffffffffffffffffffffffffffffffffffffffff16610bd6909392919063ffffffff16565b8273ffffffffffffffffffffffffffffffffffffffff163373ffffffffffffffffffffffffffffffffffffffff167f6faf93231a456e552dbc9961f58d9713ee4f2e69d15f1975b050ef0911053a7b8484604051808381526020018281526020019250505060405180910390a3610b7282600660008673ffffffffffffffffffffffffffffffffffffffff1673ffffffffffffffffffffffffffffffffffffffff16815260200190815260200160002054610d7b90919063ffffffff16565b600660008573ffffffffffffffffffffffffffffffffffffffff1673ffffffffffffffffffffffffffffffffffffffff16815260200190815260200160002081905550610bcb6001600754610d7b90919063ffffffff16565b600781905550505050565b610cd6848573ffffffffffffffffffffffffffffffffffffffff166323b872dd905060e01b858585604051602401808473ffffffffffffffffffffffffffffffffffffffff1673ffffffffffffffffffffffffffffffffffffffff1681526020018373ffffffffffffffffffffffffffffffffffffffff1673ffffffffffffffffffffffffffffffffffffffff1681526020018281526020019350505050604051602081830303815290604052907bffffffffffffffffffffffffffffffffffffffffffffffffffffffff19166020820180517bffffffffffffffffffffffffffffffffffffffffffffffffffffffff8381831617835250505050610e03565b50505050565b6000818310610ceb5781610ced565b825b905092915050565b600080831415610d085760009050610d75565b6000828402905082848281610d1957fe5b0414610d70576040517f08c379a00000000000000000000000000000000000000000000000000000000081526004018080602001828103825260218152602001806111036021913960400191505060405180910390fd5b809150505b92915050565b600080828401905083811015610df9576040517f08c379a000000000000000000000000000000000000000000000000000000000815260040180806020018281038252601b8152602001807f536166654d6174683a206164646974696f6e206f766572666c6f77000000000081525060200191505060405180910390fd5b8091505092915050565b610e228273ffffffffffffffffffffffffffffffffffffffff1661104e565b610e94576040517f08c379a000000000000000000000000000000000000000000000000000000000815260040180806020018281038252601f8152602001807f5361666545524332303a2063616c6c20746f206e6f6e2d636f6e74726163740081525060200191505060405180910390fd5b600060608373ffffffffffffffffffffffffffffffffffffffff16836040518082805190602001908083835b60208310610ee35780518252602082019150602081019050602083039250610ec0565b6001836020036101000a0380198251168184511680821785525050505050509050019150506000604051808303816000865af19150503d8060008114610f45576040519150601f19603f3d011682016040523d82523d6000602084013e610f4a565b606091505b509150915081610fc2576040517f08c379a00000000000000000000000000000000000000000000000000000000081526004018080602001828103825260208152602001807f5361666545524332303a206c6f772d6c6576656c2063616c6c206661696c656481525060200191505060405180910390fd5b60008151111561104857808060200190516020811015610fe157600080fd5b8101908080519060200190929190505050611047576040517f08c379a000000000000000000000000000000000000000000000000000000000815260040180806020018281038252602a81526020018061114a602a913960400191505060405180910390fd5b5b50505050565b60008060007fc5d2460186f7233c927e7db2dcc703c0e500b653ca82273b7bfad8045d85a47060001b9050833f915080821415801561109057506000801b8214155b9250505091905056fe43726f776473616c653a205468652061646472657373206861732070617274696369706174656420696e2063726f776466756e64696e6743726f776473616c653a2074686520616d6f756e742072616e6765732066726f6d2031353020746f20313530302075736474536166654d6174683a206d756c7469706c69636174696f6e206f766572666c6f7743726f776473616c653a2063726f776466756e64696e672071756f746120736f6c64206f75745361666545524332303a204552433230206f7065726174696f6e20646964206e6f742073756363656564a265627a7a7231582037e4d174e7edd03c6e11b51ba645984a6d8f27c54ca433b84747e3ea87ae2e5b64736f6c6343000510003243726f776473616c653a20746f6b656e2077616c6c657420697320746865207a65726f206164647265737343726f776473616c653a20746f6b656e20697320746865207a65726f206164647265737343726f776473616c653a20707572636861736520746f6b656e20697320746865207a65726f206164647265737343726f776473616c653a2077616c6c657420697320746865207a65726f2061646472657373",
  "source": "pragma solidity ^0.5.0;\r\n\r\nimport \"@openzeppelin/contracts/GSN/Context.sol\";\r\nimport \"@openzeppelin/contracts/math/Math.sol\";\r\nimport \"@openzeppelin/contracts/math/SafeMath.sol\";\r\nimport \"@openzeppelin/contracts/token/ERC20/IERC20.sol\";\r\nimport \"@openzeppelin/contracts/token/ERC20/SafeERC20.sol\";\r\nimport \"@openzeppelin/contracts/utils/ReentrancyGuard.sol\";\r\n\r\ncontract CrowdsaleByUSDT is Context, ReentrancyGuard {\r\n    using SafeMath for uint256;\r\n    using SafeERC20 for IERC20;\r\n\r\n    // 用于众筹的代币地址\r\n    IERC20 public usdtToken;\r\n    // 兑换比例，每1个输入资产兑换多少代币数量\r\n    uint256 public rate;\r\n    // 接收资金的账户地址\r\n    address payable public wallet;\r\n    // 兑换代币地址\r\n    IERC20 public token;\r\n    // 兑换代币发出地址\r\n    address public tokenWallet;\r\n    // 已兑换额度\r\n    uint256 public weiRaised;\r\n    // 每个地址已众筹的额度\r\n    mapping(address => uint256) public joined;\r\n    // 已众筹份额\r\n    uint256 public soldNumber = 0;\r\n    // 总众筹份额\r\n    uint256 public totalNumber = 3;\r\n    // 众筹最小认购金额\r\n    uint256 public minCrowdsaleAmount = 1;\r\n    // 众筹最大认购金额\r\n    uint256 public maxCrowdsaleAmount = 15;\r\n\r\n    /**\r\n     * Event for token purchase logging\r\n     * @param purchaser who paid for the tokens\r\n     * @param beneficiary who got the tokens\r\n     * @param value weis paid for purchase\r\n     * @param amount amount of tokens purchased\r\n     */\r\n    event TokensPurchased(address indexed purchaser, address indexed beneficiary, uint256 value, uint256 amount);\r\n\r\n    constructor(\r\n        IERC20 _usdtToken,   // 用于众筹的代币地址\r\n        uint256 _rate,           // 兑换比例\r\n        address payable _wallet, // 接收ETH受益人地址\r\n        IERC20 _token,           // 代币地址\r\n        address _tokenWallet     // 代币从这个地址发送\r\n    ) public {\r\n        require(address(_usdtToken) != address(0), \"Crowdsale: purchase token is the zero address\");\r\n        require(_rate > 0, \"Crowdsale: rate is 0\");\r\n        require(_wallet != address(0), \"Crowdsale: wallet is the zero address\");\r\n        require(address(_token) != address(0), \"Crowdsale: token is the zero address\");\r\n        require(_tokenWallet != address(0), \"Crowdsale: token wallet is the zero address\");\r\n\r\n        usdtToken = _usdtToken;\r\n        rate = _rate;\r\n        wallet = _wallet;\r\n        token = _token;\r\n        tokenWallet = _tokenWallet;\r\n    }\r\n\r\n    // 向合约转账\r\n    function () external payable {\r\n        wallet.transfer(msg.value);\r\n    }\r\n\r\n    // 进行众筹\r\n    function buyTokens(uint256 weiAmount) public nonReentrant payable {\r\n        _checkAmount(msg.sender, weiAmount);\r\n        // 注意校正精度，USDT-Decimals=6，DOI-Decimals=18\r\n        _buyTokens(msg.sender, weiAmount * (10**uint256(12)));\r\n        // 接收众筹\r\n        usdtToken.safeTransferFrom(msg.sender, wallet, weiAmount);\r\n    }\r\n\r\n    // 校验金额\r\n    function _checkAmount(address beneficiary, uint256 amount) internal view {\r\n        // 同一个地址只能参与一次众筹\r\n        require(joined[beneficiary] == 0, 'Crowdsale: The address has participated in crowdfunding');\r\n        // 众筹份额不能超过1000份\r\n        require(soldNumber < totalNumber, 'Crowdsale: crowdfunding quota sold out');\r\n        uint256 amountToNormal = amount / (10**uint256(6));\r\n        // 众筹金额范围\r\n        require(amountToNormal >= minCrowdsaleAmount && amountToNormal <= maxCrowdsaleAmount, 'Crowdsale: the amount ranges from 150 to 1500 usdt');\r\n        this;\r\n    }\r\n\r\n    // 执行众筹\r\n    function _buyTokens(address beneficiary, uint256 weiAmount) internal {\r\n        // 计算需要转出的token数量\r\n        uint256 tokens = weiAmount.mul(rate);\r\n        // 更新销售额\r\n        weiRaised = weiRaised.add(weiAmount);\r\n        // 代币转账\r\n        token.safeTransferFrom(tokenWallet, beneficiary, tokens);\r\n        emit TokensPurchased(msg.sender, beneficiary, weiAmount, tokens);\r\n        // 记录参与人已购买金额\r\n        joined[beneficiary] = joined[beneficiary].add(weiAmount);\r\n        // 记录众筹份额\r\n        soldNumber = soldNumber.add(1);\r\n    }\r\n\r\n    // 计算剩余众筹额度\r\n    function remainingTokens() public view returns (uint256) {\r\n        return Math.min(token.balanceOf(tokenWallet), token.allowance(tokenWallet, address(this)));\r\n    }\r\n}\r\n",
  "sourcePath": "/home/blues/Workspaces/Daoswap/daoswap-heco/core-crowdsale/contracts/Crowdsale/CrowdsaleByUSDT.sol",
  "compiler": {
    "name": "solc",
    "version": "0.5.16+commit.9c3226ce.Emscripten.clang"
  },
  "schemaVersion": "3.3.4",
  "updatedAt": "2021-05-19T00:50:17.100Z",
  "networkType": "ethereum",
  "devdoc": {
    "methods": {}
  },
  "userdoc": {
    "methods": {}
  }
}